{
  "_format": "hh-sol-artifact-1",
  "contractName": "TestERC721",
  "sourceName": "contracts/test/TestERC721.sol",
  "abi": [
    {
      "inputs": [],
      "stateMutability": "nonpayable",
      "type": "constructor"
    },
    {
      "anonymous": false,
      "inputs": [
        {
          "indexed": true,
          "internalType": "address",
          "name": "owner",
          "type": "address"
        },
        {
          "indexed": true,
          "internalType": "address",
          "name": "approved",
          "type": "address"
        },
        {
          "indexed": true,
          "internalType": "uint256",
          "name": "tokenId",
          "type": "uint256"
        }
      ],
      "name": "Approval",
      "type": "event"
    },
    {
      "anonymous": false,
      "inputs": [
        {
          "indexed": true,
          "internalType": "address",
          "name": "owner",
          "type": "address"
        },
        {
          "indexed": true,
          "internalType": "address",
          "name": "operator",
          "type": "address"
        },
        {
          "indexed": false,
          "internalType": "bool",
          "name": "approved",
          "type": "bool"
        }
      ],
      "name": "ApprovalForAll",
      "type": "event"
    },
    {
      "anonymous": false,
      "inputs": [
        {
          "indexed": true,
          "internalType": "address",
          "name": "from",
          "type": "address"
        },
        {
          "indexed": true,
          "internalType": "address",
          "name": "to",
          "type": "address"
        },
        {
          "indexed": true,
          "internalType": "uint256",
          "name": "tokenId",
          "type": "uint256"
        }
      ],
      "name": "Transfer",
      "type": "event"
    },
    {
      "inputs": [
        {
          "internalType": "address",
          "name": "to",
          "type": "address"
        },
        {
          "internalType": "uint256",
          "name": "tokenId",
          "type": "uint256"
        }
      ],
      "name": "approve",
      "outputs": [],
      "stateMutability": "nonpayable",
      "type": "function"
    },
    {
      "inputs": [
        {
          "internalType": "address",
          "name": "owner",
          "type": "address"
        }
      ],
      "name": "balanceOf",
      "outputs": [
        {
          "internalType": "uint256",
          "name": "",
          "type": "uint256"
        }
      ],
      "stateMutability": "view",
      "type": "function"
    },
    {
      "inputs": [
        {
          "internalType": "uint256",
          "name": "tokenId",
          "type": "uint256"
        }
      ],
      "name": "getApproved",
      "outputs": [
        {
          "internalType": "address",
          "name": "",
          "type": "address"
        }
      ],
      "stateMutability": "view",
      "type": "function"
    },
    {
      "inputs": [
        {
          "internalType": "address",
          "name": "owner",
          "type": "address"
        },
        {
          "internalType": "address",
          "name": "operator",
          "type": "address"
        }
      ],
      "name": "isApprovedForAll",
      "outputs": [
        {
          "internalType": "bool",
          "name": "",
          "type": "bool"
        }
      ],
      "stateMutability": "view",
      "type": "function"
    },
    {
      "inputs": [
        {
          "internalType": "address",
          "name": "_to",
          "type": "address"
        },
        {
          "internalType": "uint256",
          "name": "_id",
          "type": "uint256"
        }
      ],
      "name": "mint",
      "outputs": [],
      "stateMutability": "nonpayable",
      "type": "function"
    },
    {
      "inputs": [],
      "name": "name",
      "outputs": [
        {
          "internalType": "string",
          "name": "",
          "type": "string"
        }
      ],
      "stateMutability": "view",
      "type": "function"
    },
    {
      "inputs": [
        {
          "internalType": "uint256",
          "name": "tokenId",
          "type": "uint256"
        }
      ],
      "name": "ownerOf",
      "outputs": [
        {
          "internalType": "address",
          "name": "",
          "type": "address"
        }
      ],
      "stateMutability": "view",
      "type": "function"
    },
    {
      "inputs": [
        {
          "internalType": "address",
          "name": "from",
          "type": "address"
        },
        {
          "internalType": "address",
          "name": "to",
          "type": "address"
        },
        {
          "internalType": "uint256",
          "name": "tokenId",
          "type": "uint256"
        }
      ],
      "name": "safeTransferFrom",
      "outputs": [],
      "stateMutability": "nonpayable",
      "type": "function"
    },
    {
      "inputs": [
        {
          "internalType": "address",
          "name": "from",
          "type": "address"
        },
        {
          "internalType": "address",
          "name": "to",
          "type": "address"
        },
        {
          "internalType": "uint256",
          "name": "tokenId",
          "type": "uint256"
        },
        {
          "internalType": "bytes",
          "name": "_data",
          "type": "bytes"
        }
      ],
      "name": "safeTransferFrom",
      "outputs": [],
      "stateMutability": "nonpayable",
      "type": "function"
    },
    {
      "inputs": [
        {
          "internalType": "address",
          "name": "operator",
          "type": "address"
        },
        {
          "internalType": "bool",
          "name": "approved",
          "type": "bool"
        }
      ],
      "name": "setApprovalForAll",
      "outputs": [],
      "stateMutability": "nonpayable",
      "type": "function"
    },
    {
      "inputs": [
        {
          "internalType": "bytes4",
          "name": "interfaceId",
          "type": "bytes4"
        }
      ],
      "name": "supportsInterface",
      "outputs": [
        {
          "internalType": "bool",
          "name": "",
          "type": "bool"
        }
      ],
      "stateMutability": "view",
      "type": "function"
    },
    {
      "inputs": [],
      "name": "symbol",
      "outputs": [
        {
          "internalType": "string",
          "name": "",
          "type": "string"
        }
      ],
      "stateMutability": "view",
      "type": "function"
    },
    {
      "inputs": [
        {
          "internalType": "uint256",
          "name": "tokenId",
          "type": "uint256"
        }
      ],
      "name": "tokenURI",
      "outputs": [
        {
          "internalType": "string",
          "name": "",
          "type": "string"
        }
      ],
      "stateMutability": "view",
      "type": "function"
    },
    {
      "inputs": [
        {
          "internalType": "address",
          "name": "from",
          "type": "address"
        },
        {
          "internalType": "address",
          "name": "to",
          "type": "address"
        },
        {
          "internalType": "uint256",
          "name": "tokenId",
          "type": "uint256"
        }
      ],
      "name": "transferFrom",
      "outputs": [],
      "stateMutability": "nonpayable",
      "type": "function"
    }
  ],
  "bytecode": "0x60806040523480156200001157600080fd5b506040518060400160405280600881526020017f546573744e616d650000000000000000000000000000000000000000000000008152506040518060400160405280600481526020017f5445535400000000000000000000000000000000000000000000000000000000815250816000908051906020019062000096929190620000b8565b508060019080519060200190620000af929190620000b8565b505050620001cd565b828054620000c69062000168565b90600052602060002090601f016020900481019282620000ea576000855562000136565b82601f106200010557805160ff191683800117855562000136565b8280016001018555821562000136579182015b828111156200013557825182559160200191906001019062000118565b5b50905062000145919062000149565b5090565b5b80821115620001645760008160009055506001016200014a565b5090565b600060028204905060018216806200018157607f821691505b602082108114156200019857620001976200019e565b5b50919050565b7f4e487b7100000000000000000000000000000000000000000000000000000000600052602260045260246000fd5b6126be80620001dd6000396000f3fe608060405234801561001057600080fd5b50600436106100ea5760003560e01c80636352211e1161008c578063a22cb46511610066578063a22cb4651461025b578063b88d4fde14610277578063c87b56dd14610293578063e985e9c5146102c3576100ea565b80636352211e146101dd57806370a082311461020d57806395d89b411461023d576100ea565b8063095ea7b3116100c8578063095ea7b31461016d57806323b872dd1461018957806340c10f19146101a557806342842e0e146101c1576100ea565b806301ffc9a7146100ef57806306fdde031461011f578063081812fc1461013d575b600080fd5b610109600480360381019061010491906118c0565b6102f3565b6040516101169190611c80565b60405180910390f35b6101276103d5565b6040516101349190611c9b565b60405180910390f35b61015760048036038101906101529190611912565b610467565b6040516101649190611c19565b60405180910390f35b61018760048036038101906101829190611884565b6104ec565b005b6101a3600480360381019061019e919061177e565b610604565b005b6101bf60048036038101906101ba9190611884565b610664565b005b6101db60048036038101906101d6919061177e565b610672565b005b6101f760048036038101906101f29190611912565b610692565b6040516102049190611c19565b60405180910390f35b61022760048036038101906102229190611719565b610744565b6040516102349190611e7d565b60405180910390f35b6102456107fc565b6040516102529190611c9b565b60405180910390f35b61027560048036038101906102709190611848565b61088e565b005b610291600480360381019061028c91906117cd565b6108a4565b005b6102ad60048036038101906102a89190611912565b610906565b6040516102ba9190611c9b565b60405180910390f35b6102dd60048036038101906102d89190611742565b6109ad565b6040516102ea9190611c80565b60405180910390f35b60007f80ac58cd000000000000000000000000000000000000000000000000000000007bffffffffffffffffffffffffffffffffffffffffffffffffffffffff1916827bffffffffffffffffffffffffffffffffffffffffffffffffffffffff191614806103be57507f5b5e139f000000000000000000000000000000000000000000000000000000007bffffffffffffffffffffffffffffffffffffffffffffffffffffffff1916827bffffffffffffffffffffffffffffffffffffffffffffffffffffffff1916145b806103ce57506103cd82610a41565b5b9050919050565b6060600080546103e4906120a2565b80601f0160208091040260200160405190810160405280929190818152602001828054610410906120a2565b801561045d5780601f106104325761010080835404028352916020019161045d565b820191906000526020600020905b81548152906001019060200180831161044057829003601f168201915b5050505050905090565b600061047282610aab565b6104b1576040517f08c379a00000000000000000000000000000000000000000000000000000000081526004016104a890611dfd565b60405180910390fd5b6004600083815260200190815260200160002060009054906101000a900473ffffffffffffffffffffffffffffffffffffffff169050919050565b60006104f782610692565b90508073ffffffffffffffffffffffffffffffffffffffff168373ffffffffffffffffffffffffffffffffffffffff161415610568576040517f08c379a000000000000000000000000000000000000000000000000000000000815260040161055f90611e3d565b60405180910390fd5b8073ffffffffffffffffffffffffffffffffffffffff16610587610b17565b73ffffffffffffffffffffffffffffffffffffffff1614806105b657506105b5816105b0610b17565b6109ad565b5b6105f5576040517f08c379a00000000000000000000000000000000000000000000000000000000081526004016105ec90611d7d565b60405180910390fd5b6105ff8383610b1f565b505050565b61061561060f610b17565b82610bd8565b610654576040517f08c379a000000000000000000000000000000000000000000000000000000000815260040161064b90611e5d565b60405180910390fd5b61065f838383610cb6565b505050565b61066e8282610f1d565b5050565b61068d838383604051806020016040528060008152506108a4565b505050565b6000806002600084815260200190815260200160002060009054906101000a900473ffffffffffffffffffffffffffffffffffffffff169050600073ffffffffffffffffffffffffffffffffffffffff168173ffffffffffffffffffffffffffffffffffffffff16141561073b576040517f08c379a000000000000000000000000000000000000000000000000000000000815260040161073290611dbd565b60405180910390fd5b80915050919050565b60008073ffffffffffffffffffffffffffffffffffffffff168273ffffffffffffffffffffffffffffffffffffffff1614156107b5576040517f08c379a00000000000000000000000000000000000000000000000000000000081526004016107ac90611d9d565b60405180910390fd5b600360008373ffffffffffffffffffffffffffffffffffffffff1673ffffffffffffffffffffffffffffffffffffffff168152602001908152602001600020549050919050565b60606001805461080b906120a2565b80601f0160208091040260200160405190810160405280929190818152602001828054610837906120a2565b80156108845780601f1061085957610100808354040283529160200191610884565b820191906000526020600020905b81548152906001019060200180831161086757829003601f168201915b5050505050905090565b6108a0610899610b17565b83836110f7565b5050565b6108b56108af610b17565b83610bd8565b6108f4576040517f08c379a00000000000000000000000000000000000000000000000000000000081526004016108eb90611e5d565b60405180910390fd5b61090084848484611264565b50505050565b606061091182610aab565b610950576040517f08c379a000000000000000000000000000000000000000000000000000000000815260040161094790611e1d565b60405180910390fd5b600061095a6112c0565b9050600081511161097a57604051806020016040528060008152506109a5565b80610984846112d7565b604051602001610995929190611bf5565b6040516020818303038152906040525b915050919050565b6000600560008473ffffffffffffffffffffffffffffffffffffffff1673ffffffffffffffffffffffffffffffffffffffff16815260200190815260200160002060008373ffffffffffffffffffffffffffffffffffffffff1673ffffffffffffffffffffffffffffffffffffffff16815260200190815260200160002060009054906101000a900460ff16905092915050565b60007f01ffc9a7000000000000000000000000000000000000000000000000000000007bffffffffffffffffffffffffffffffffffffffffffffffffffffffff1916827bffffffffffffffffffffffffffffffffffffffffffffffffffffffff1916149050919050565b60008073ffffffffffffffffffffffffffffffffffffffff166002600084815260200190815260200160002060009054906101000a900473ffffffffffffffffffffffffffffffffffffffff1673ffffffffffffffffffffffffffffffffffffffff1614159050919050565b600033905090565b816004600083815260200190815260200160002060006101000a81548173ffffffffffffffffffffffffffffffffffffffff021916908373ffffffffffffffffffffffffffffffffffffffff160217905550808273ffffffffffffffffffffffffffffffffffffffff16610b9283610692565b73ffffffffffffffffffffffffffffffffffffffff167f8c5be1e5ebec7d5bd14f71427d1e84f3dd0314c0f7b2291e5b200ac8c7c3b92560405160405180910390a45050565b6000610be382610aab565b610c22576040517f08c379a0000000000000000000000000000000000000000000000000000000008152600401610c1990611d5d565b60405180910390fd5b6000610c2d83610692565b90508073ffffffffffffffffffffffffffffffffffffffff168473ffffffffffffffffffffffffffffffffffffffff161480610c9c57508373ffffffffffffffffffffffffffffffffffffffff16610c8484610467565b73ffffffffffffffffffffffffffffffffffffffff16145b80610cad5750610cac81856109ad565b5b91505092915050565b8273ffffffffffffffffffffffffffffffffffffffff16610cd682610692565b73ffffffffffffffffffffffffffffffffffffffff1614610d2c576040517f08c379a0000000000000000000000000000000000000000000000000000000008152600401610d2390611cdd565b60405180910390fd5b600073ffffffffffffffffffffffffffffffffffffffff168273ffffffffffffffffffffffffffffffffffffffff161415610d9c576040517f08c379a0000000000000000000000000000000000000000000000000000000008152600401610d9390611d1d565b60405180910390fd5b610da7838383611484565b610db2600082610b1f565b6001600360008573ffffffffffffffffffffffffffffffffffffffff1673ffffffffffffffffffffffffffffffffffffffff1681526020019081526020016000206000828254610e029190611fb8565b925050819055506001600360008473ffffffffffffffffffffffffffffffffffffffff1673ffffffffffffffffffffffffffffffffffffffff1681526020019081526020016000206000828254610e599190611f31565b92505081905550816002600083815260200190815260200160002060006101000a81548173ffffffffffffffffffffffffffffffffffffffff021916908373ffffffffffffffffffffffffffffffffffffffff160217905550808273ffffffffffffffffffffffffffffffffffffffff168473ffffffffffffffffffffffffffffffffffffffff167fddf252ad1be2c89b69c2b068fc378daa952ba7f163c4a11628f55a4df523b3ef60405160405180910390a4610f18838383611489565b505050565b600073ffffffffffffffffffffffffffffffffffffffff168273ffffffffffffffffffffffffffffffffffffffff161415610f8d576040517f08c379a0000000000000000000000000000000000000000000000000000000008152600401610f8490611ddd565b60405180910390fd5b610f9681610aab565b15610fd6576040517f08c379a0000000000000000000000000000000000000000000000000000000008152600401610fcd90611cfd565b60405180910390fd5b610fe260008383611484565b6001600360008473ffffffffffffffffffffffffffffffffffffffff1673ffffffffffffffffffffffffffffffffffffffff16815260200190815260200160002060008282546110329190611f31565b92505081905550816002600083815260200190815260200160002060006101000a81548173ffffffffffffffffffffffffffffffffffffffff021916908373ffffffffffffffffffffffffffffffffffffffff160217905550808273ffffffffffffffffffffffffffffffffffffffff16600073ffffffffffffffffffffffffffffffffffffffff167fddf252ad1be2c89b69c2b068fc378daa952ba7f163c4a11628f55a4df523b3ef60405160405180910390a46110f360008383611489565b5050565b8173ffffffffffffffffffffffffffffffffffffffff168373ffffffffffffffffffffffffffffffffffffffff161415611166576040517f08c379a000000000000000000000000000000000000000000000000000000000815260040161115d90611d3d565b60405180910390fd5b80600560008573ffffffffffffffffffffffffffffffffffffffff1673ffffffffffffffffffffffffffffffffffffffff16815260200190815260200160002060008473ffffffffffffffffffffffffffffffffffffffff1673ffffffffffffffffffffffffffffffffffffffff16815260200190815260200160002060006101000a81548160ff0219169083151502179055508173ffffffffffffffffffffffffffffffffffffffff168373ffffffffffffffffffffffffffffffffffffffff167f17307eab39ab6107e8899845ad3d59bd9653f200f220920489ca2b5937696c31836040516112579190611c80565b60405180910390a3505050565b61126f848484610cb6565b61127b8484848461148e565b6112ba576040517f08c379a00000000000000000000000000000000000000000000000000000000081526004016112b190611cbd565b60405180910390fd5b50505050565b606060405180602001604052806000815250905090565b6060600082141561131f576040518060400160405280600181526020017f3000000000000000000000000000000000000000000000000000000000000000815250905061147f565b600082905060005b6000821461135157808061133a90612105565b915050600a8261134a9190611f87565b9150611327565b60008167ffffffffffffffff811115611393577f4e487b7100000000000000000000000000000000000000000000000000000000600052604160045260246000fd5b6040519080825280601f01601f1916602001820160405280156113c55781602001600182028036833780820191505090505b5090505b60008514611478576001826113de9190611fb8565b9150600a856113ed919061214e565b60306113f99190611f31565b60f81b818381518110611435577f4e487b7100000000000000000000000000000000000000000000000000000000600052603260045260246000fd5b60200101907effffffffffffffffffffffffffffffffffffffffffffffffffffffffffffff1916908160001a905350600a856114719190611f87565b94506113c9565b8093505050505b919050565b505050565b505050565b60006114af8473ffffffffffffffffffffffffffffffffffffffff16611625565b15611618578373ffffffffffffffffffffffffffffffffffffffff1663150b7a026114d8610b17565b8786866040518563ffffffff1660e01b81526004016114fa9493929190611c34565b602060405180830381600087803b15801561151457600080fd5b505af192505050801561154557506040513d601f19601f8201168201806040525081019061154291906118e9565b60015b6115c8573d8060008114611575576040519150601f19603f3d011682016040523d82523d6000602084013e61157a565b606091505b506000815114156115c0576040517f08c379a00000000000000000000000000000000000000000000000000000000081526004016115b790611cbd565b60405180910390fd5b805181602001fd5b63150b7a0260e01b7bffffffffffffffffffffffffffffffffffffffffffffffffffffffff1916817bffffffffffffffffffffffffffffffffffffffffffffffffffffffff19161491505061161d565b600190505b949350505050565b6000808273ffffffffffffffffffffffffffffffffffffffff163b119050919050565b600061165b61165684611ebd565b611e98565b90508281526020810184848401111561167357600080fd5b61167e848285612060565b509392505050565b6000813590506116958161262c565b92915050565b6000813590506116aa81612643565b92915050565b6000813590506116bf8161265a565b92915050565b6000815190506116d48161265a565b92915050565b600082601f8301126116eb57600080fd5b81356116fb848260208601611648565b91505092915050565b60008135905061171381612671565b92915050565b60006020828403121561172b57600080fd5b600061173984828501611686565b91505092915050565b6000806040838503121561175557600080fd5b600061176385828601611686565b925050602061177485828601611686565b9150509250929050565b60008060006060848603121561179357600080fd5b60006117a186828701611686565b93505060206117b286828701611686565b92505060406117c386828701611704565b9150509250925092565b600080600080608085870312156117e357600080fd5b60006117f187828801611686565b945050602061180287828801611686565b935050604061181387828801611704565b925050606085013567ffffffffffffffff81111561183057600080fd5b61183c878288016116da565b91505092959194509250565b6000806040838503121561185b57600080fd5b600061186985828601611686565b925050602061187a8582860161169b565b9150509250929050565b6000806040838503121561189757600080fd5b60006118a585828601611686565b92505060206118b685828601611704565b9150509250929050565b6000602082840312156118d257600080fd5b60006118e0848285016116b0565b91505092915050565b6000602082840312156118fb57600080fd5b6000611909848285016116c5565b91505092915050565b60006020828403121561192457600080fd5b600061193284828501611704565b91505092915050565b61194481611fec565b82525050565b61195381611ffe565b82525050565b600061196482611eee565b61196e8185611f04565b935061197e81856020860161206f565b6119878161223b565b840191505092915050565b600061199d82611ef9565b6119a78185611f15565b93506119b781856020860161206f565b6119c08161223b565b840191505092915050565b60006119d682611ef9565b6119e08185611f26565b93506119f081856020860161206f565b80840191505092915050565b6000611a09603283611f15565b9150611a148261224c565b604082019050919050565b6000611a2c602583611f15565b9150611a378261229b565b604082019050919050565b6000611a4f601c83611f15565b9150611a5a826122ea565b602082019050919050565b6000611a72602483611f15565b9150611a7d82612313565b604082019050919050565b6000611a95601983611f15565b9150611aa082612362565b602082019050919050565b6000611ab8602c83611f15565b9150611ac38261238b565b604082019050919050565b6000611adb603883611f15565b9150611ae6826123da565b604082019050919050565b6000611afe602a83611f15565b9150611b0982612429565b604082019050919050565b6000611b21602983611f15565b9150611b2c82612478565b604082019050919050565b6000611b44602083611f15565b9150611b4f826124c7565b602082019050919050565b6000611b67602c83611f15565b9150611b72826124f0565b604082019050919050565b6000611b8a602f83611f15565b9150611b958261253f565b604082019050919050565b6000611bad602183611f15565b9150611bb88261258e565b604082019050919050565b6000611bd0603183611f15565b9150611bdb826125dd565b604082019050919050565b611bef81612056565b82525050565b6000611c0182856119cb565b9150611c0d82846119cb565b91508190509392505050565b6000602082019050611c2e600083018461193b565b92915050565b6000608082019050611c49600083018761193b565b611c56602083018661193b565b611c636040830185611be6565b8181036060830152611c758184611959565b905095945050505050565b6000602082019050611c95600083018461194a565b92915050565b60006020820190508181036000830152611cb58184611992565b905092915050565b60006020820190508181036000830152611cd6816119fc565b9050919050565b60006020820190508181036000830152611cf681611a1f565b9050919050565b60006020820190508181036000830152611d1681611a42565b9050919050565b60006020820190508181036000830152611d3681611a65565b9050919050565b60006020820190508181036000830152611d5681611a88565b9050919050565b60006020820190508181036000830152611d7681611aab565b9050919050565b60006020820190508181036000830152611d9681611ace565b9050919050565b60006020820190508181036000830152611db681611af1565b9050919050565b60006020820190508181036000830152611dd681611b14565b9050919050565b60006020820190508181036000830152611df681611b37565b9050919050565b60006020820190508181036000830152611e1681611b5a565b9050919050565b60006020820190508181036000830152611e3681611b7d565b9050919050565b60006020820190508181036000830152611e5681611ba0565b9050919050565b60006020820190508181036000830152611e7681611bc3565b9050919050565b6000602082019050611e926000830184611be6565b92915050565b6000611ea2611eb3565b9050611eae82826120d4565b919050565b6000604051905090565b600067ffffffffffffffff821115611ed857611ed761220c565b5b611ee18261223b565b9050602081019050919050565b600081519050919050565b600081519050919050565b600082825260208201905092915050565b600082825260208201905092915050565b600081905092915050565b6000611f3c82612056565b9150611f4783612056565b9250827fffffffffffffffffffffffffffffffffffffffffffffffffffffffffffffffff03821115611f7c57611f7b61217f565b5b828201905092915050565b6000611f9282612056565b9150611f9d83612056565b925082611fad57611fac6121ae565b5b828204905092915050565b6000611fc382612056565b9150611fce83612056565b925082821015611fe157611fe061217f565b5b828203905092915050565b6000611ff782612036565b9050919050565b60008115159050919050565b60007fffffffff0000000000000000000000000000000000000000000000000000000082169050919050565b600073ffffffffffffffffffffffffffffffffffffffff82169050919050565b6000819050919050565b82818337600083830152505050565b60005b8381101561208d578082015181840152602081019050612072565b8381111561209c576000848401525b50505050565b600060028204905060018216806120ba57607f821691505b602082108114156120ce576120cd6121dd565b5b50919050565b6120dd8261223b565b810181811067ffffffffffffffff821117156120fc576120fb61220c565b5b80604052505050565b600061211082612056565b91507fffffffffffffffffffffffffffffffffffffffffffffffffffffffffffffffff8214156121435761214261217f565b5b600182019050919050565b600061215982612056565b915061216483612056565b925082612174576121736121ae565b5b828206905092915050565b7f4e487b7100000000000000000000000000000000000000000000000000000000600052601160045260246000fd5b7f4e487b7100000000000000000000000000000000000000000000000000000000600052601260045260246000fd5b7f4e487b7100000000000000000000000000000000000000000000000000000000600052602260045260246000fd5b7f4e487b7100000000000000000000000000000000000000000000000000000000600052604160045260246000fd5b6000601f19601f8301169050919050565b7f4552433732313a207472616e7366657220746f206e6f6e20455243373231526560008201527f63656976657220696d706c656d656e7465720000000000000000000000000000602082015250565b7f4552433732313a207472616e736665722066726f6d20696e636f72726563742060008201527f6f776e6572000000000000000000000000000000000000000000000000000000602082015250565b7f4552433732313a20746f6b656e20616c7265616479206d696e74656400000000600082015250565b7f4552433732313a207472616e7366657220746f20746865207a65726f2061646460008201527f7265737300000000000000000000000000000000000000000000000000000000602082015250565b7f4552433732313a20617070726f766520746f2063616c6c657200000000000000600082015250565b7f4552433732313a206f70657261746f7220717565727920666f72206e6f6e657860008201527f697374656e7420746f6b656e0000000000000000000000000000000000000000602082015250565b7f4552433732313a20617070726f76652063616c6c6572206973206e6f74206f7760008201527f6e6572206e6f7220617070726f76656420666f7220616c6c0000000000000000602082015250565b7f4552433732313a2062616c616e636520717565727920666f7220746865207a6560008201527f726f206164647265737300000000000000000000000000000000000000000000602082015250565b7f4552433732313a206f776e657220717565727920666f72206e6f6e657869737460008201527f656e7420746f6b656e0000000000000000000000000000000000000000000000602082015250565b7f4552433732313a206d696e7420746f20746865207a65726f2061646472657373600082015250565b7f4552433732313a20617070726f76656420717565727920666f72206e6f6e657860008201527f697374656e7420746f6b656e0000000000000000000000000000000000000000602082015250565b7f4552433732314d657461646174613a2055524920717565727920666f72206e6f60008201527f6e6578697374656e7420746f6b656e0000000000000000000000000000000000602082015250565b7f4552433732313a20617070726f76616c20746f2063757272656e74206f776e6560008201527f7200000000000000000000000000000000000000000000000000000000000000602082015250565b7f4552433732313a207472616e736665722063616c6c6572206973206e6f74206f60008201527f776e6572206e6f7220617070726f766564000000000000000000000000000000602082015250565b61263581611fec565b811461264057600080fd5b50565b61264c81611ffe565b811461265757600080fd5b50565b6126638161200a565b811461266e57600080fd5b50565b61267a81612056565b811461268557600080fd5b5056fea264697066735822122039c05621783c075dec42e5155dbda02c608c05819d5de60cd4e96648630d263764736f6c63430008020033",
  "linkReferences": {},
  "deployedLinkReferences": {}
}